:100000000C9434000C9451000C9451000C94510049
:100010000C9451000C9451000C9451000C9451001C
:100020000C9451000C9451000C9451000C947C00E1
:100030000C9451000C9451000C9451000C945100FC
:100040000C9451000C9451000C9451000C945100EC
:100050000C9451000C9451000C9451000C945100DC
:100060000C9451000C94510011241FBECFEFD8E026
:10007000DEBFCDBF11E0A0E0B1E0E4E1F6E002C0F8
:1000800005900D92AE31B107D9F711E0AEE1B1E0C4
:1000900001C01D92A732B107E1F70E94EF000C9456
:1000A00008030C94000046B1892B19F020E030E0E1
:1000B0000DC020E030E0842F992787FD9095847053
:1000C00090708061409711F421E030E0C9010895FB
:1000D000A1E8B0E08C9188608C93EFE6F0E080813D
:1000E000826080838AE698E19093890080938800FB
:1000F0008C9184608C9308951F920F920FB60F928B
:1001000011248F939F9380911E0190911F0101965E
:1001100090931F0180931E0180911E0190911F01F9
:100120000A976CF010921F0110921E01809120011D
:10013000909121010196909321018093200180915B
:100140002001909121010A976CF0109221011092E8
:100150002001809122019091230101969093230127
:1001600080932201809122019091230106977CF0D7
:1001700010921F0110921E01109221011092200175
:10018000109223011092220181E0809326019F9119
:100190008F910F900FBE0F901F901895482F86B12A
:1001A00090E0042E02C0959587950A94E2F780FDB1
:1001B00015C080E29EE40197F1F721E030E002C033
:1001C000220F331F4A95E2F786B190E082239323F2
:1001D000892BD1F380E29EE40197F1F708958F9285
:1001E0009F92AF92BF92CF92DF92EF92FF920F93C6
:1001F0001F93DF93CF93CDB7DEB7C455D0400FB672
:10020000F894DEBF0FBECDBF0E94C1010E946800FE
:1002100088B1846188B981E00E94A70180E091E003
:100220000E949B0180E29EE420E931E0F9013197D0
:10023000F1F70197D9F778948E010F5F1F4F95E57D
:10024000E92EF12CEC0EFD1E0E94650262E070E0CA
:100250000E94ED01F801819391938F01EE15FF0546
:1002600099F781E00E94A7011092210110922001CC
:10027000109223011092220110921F0110921E0170
:10028000C980DA804E010894811C911C8FE0A82E51
:10029000B12C86B1C114D10441F4992787FD909502
:1002A000847090708061409711F1740100E010E05B
:1002B00019C00A32110544F4F7018081602F0E94B1
:1002C000B70184E191E006C080E0602F0E94B70191
:1002D00086E191E00E949B010F5F1F4F82E090E05A
:1002E000E80EF91EA016B10624F7D3CFFFCF80E0A9
:1002F00060E00E94B70188E191E00E949B01F6CF87
:100300009BB19F709BB99BB1807F892B8BB9299A38
:10031000299A299808951F93182F289A0E948001DE
:10032000812F8295807F0E94800180E49FE1019768
:10033000F1F71F910895CF93DF93EC0102C00E9463
:100340008B0189918823D9F7DF91CF9108951F936D
:10035000182F28980E948001812F8295807F0E940B
:10036000800180E49FE10197F1F71F9108958823B0
:1003700019F4862F805802C0862F80540E94A7014E
:10038000089584B1836084B98AB1806F8AB980E6A8
:100390009AEE0197F1F780E30E94800180E29EE4EB
:1003A0000197F1F780E30E94800180EE91E00197D0
:1003B000F1F780E30E94800180E20E94800180E4E6
:1003C0009FE10197F1F788E20E94A7018FE00E9468
:1003D000A70182E00E94A701089597FB092E072636
:1003E0000AD077FD04D00CD006D000201AF4709506
:1003F00061957F4F0895F6F7909581959F4F0895E9
:10040000AA1BBB1B51E107C0AA1FBB1FA617B7073A
:1004100010F0A61BB70B881F991F5A95A9F7809556
:100420009095BC01CD010895A0E0B0E0EAE1F2E0D2
:100430000C94B702EC01A880B980CA80DB80A114BB
:10044000B104C104D10441F484E2A82E89EDB82E90
:100450008BE5C82E87E0D82EC601B5012DE133EF1C
:1004600041E050E00E94940227EA31E440E050E08D
:100470000E9475027B018C01C601B5012DE133EFAD
:1004800041E050E00E949402CA01B9012CEE34EF21
:100490004FEF5FEF0E9475026E0D7F1D801F911F51
:1004A00097FF04C061507040804090486883798312
:1004B0008A839B839B013F77C901CDB7DEB7EAE012
:1004C0000C94D3020E94140208958AE191E00E94E4
:1004D00014020895A0E0B0E080931A0190931B01EC
:1004E000A0931C01B0931D010895629FD001739FDA
:1004F000F001829FE00DF11D649FE00DF11D929FC0
:10050000F00D839FF00D749FF00D659FF00D9927FE
:10051000729FB00DE11DF91F639FB00DE11DF91F22
:10052000BD01CF011124089597FB092E05260ED099
:1005300057FD04D04BD00AD0001C38F4509540959C
:10054000309521953F4F4F4F5F4F0895F6F79095A7
:100550008095709561957F4F8F4F9F4F08952F9293
:100560003F924F925F926F927F928F929F92AF9243
:10057000BF92CF92DF92EF92FF920F931F93CF9390
:10058000DF93CDB7DEB7CA1BDB0B0FB6F894DEBF27
:100590000FBECDBF09942A88398848885F846E844D
:1005A0007D848C849B84AA84B984C884DF80EE8097
:1005B000FD800C811B81AA81B981CE0FD11D0FB6A0
:1005C000F894DEBF0FBECDBFED010895A1E21A2E53
:1005D000AA1BBB1BFD010DC0AA1FBB1FEE1FFF1FE7
:1005E000A217B307E407F50720F0A21BB30BE40B37
:1005F000F50B661F771F881F991F1A9469F760957E
:100600007095809590959B01AC01BD01CF01089537
:04061000F894FFCF8C
:1006140057656C636F6D6520746F205477696E6BDA
:0E0624006C6521002E00200061000100000026
:00000001FF
