:100000000C943A000C9457000C9457000C94570031
:100010000C9496000C94A7040C9457000C94300197
:100020000C9457000C9457000C9457000C94120138
:100030000C9457000C9457000C9443050C945700F3
:100040000C9457000C9457000C9489050C9457009D
:100050000C9457000C9457000C9457000C945700C4
:100060000C9457000C9457006364696E6F7073753D
:1000700078585B0011241FBECFEFD8E0DEBFCDBFA4
:1000800011E0A0E0B1E0ECECF8E102C005900D92C7
:10009000A634B107D9F711E0A6E4B1E001C01D9282
:1000A000A136B107E1F70E94CA010C94640C0C94CC
:1000B0000000409156018091510190915201A09110
:1000C0005301B0915401242F30E0281B390B37FF26
:1000D00003C0309521953F4F2F3131051CF44398D3
:1000E000429A0895242F30E040E050E08091510181
:1000F00090915201A0915301B0915401821793073E
:10010000A407B50718F44298439A089580915101C5
:1001100090915201A0915301B091540128173907D1
:100120004A075B0710F4429A439A08951F920F9270
:100130000FB60F9211242F938F939F93AF93BF937A
:1001400086B126B190E080719070A4E09595879576
:10015000AA95E1F7882369F4109285001092840033
:100160002D9A8091810085608093810081E0809349
:100170004D01822F90E08072907025E095958795D3
:100180002A95E1F78823E9F480914D018823C9F08D
:1001900080918100887F809381002D9881E08093F9
:1001A00046018091840090918500A0E0B0E08093AA
:1001B000470190934801A0934901B0934A011092DE
:1001C0004D01BF91AF919F918F912F910F900FBED5
:1001D0000F901F901895E0EBF0E0808183608083A2
:1001E000808180688083E1EBF0E08081876080839C
:1001F00083E28093B300E0E7F0E080818260808357
:100200000895E1E8F0E080818860808384E294EFE3
:100210009093890080938800EFE6F0E0808182600F
:10022000808308951F920F920FB60F9211248F931F
:100230009F93EF93FF93E1E8F0E08081887F8083D4
:100240002D9881E090E090934C0180934B01FF91B9
:10025000EF919F918F910F900FBE0F901F90189567
:100260001F920F920FB60F9211240F900FBE0F9096
:100270001F901895CF92DF92EF92FF920F931F93EA
:10028000DF93CF93CDB7DEB72A970FB6F894DEBFD2
:100290000FBECDBF81E067E00E94710400D000D0A6
:1002A00000D0EDB7FEB731968AE591E0ADB7BEB7A5
:1002B00012969C938E93119700E011E013830283B2
:1002C00086E591E0958384830E94750600D0EDB7A2
:1002D000FEB731967E010894E11CF11CADB7BEB7A4
:1002E0001296FC92EE921197B5E0CB2ED12CD382D0
:1002F000C28215830483809156016AE00E94EF0553
:10030000868317820E9444068DB79EB708960FB663
:10031000F8949EBF0FBE8DBFC7010E945504ADB7B4
:10032000BEB718970FB6F894BEBF0FBEADBFEDB7FE
:10033000FEB731968E010A5F1F4F12961C930E93E3
:100340001197D382C28283E091E095838483809168
:1003500056016AE00E94EF05968317820E944406C8
:100360008DB79EB708960FB6F8949EBF0FBE8DBF8F
:10037000C8010E9455042A960FB6F894DEBF0FBE3E
:10038000CDBFCF91DF911F910F91FF90EF90DF9044
:10039000CF9008952F923F924F925F926F927F92EB
:1003A0008F929F92AF92BF92CF92DF92EF92FF9285
:1003B0000F931F93DF93CF93CDB7DEB7C654D040D2
:1003C0000FB6F894DEBF0FBECDBF0E947B0484B190
:1003D000886384B9399A87B18C6087B92D988BB1BD
:1003E0008C608BB92C984398429A81E00E946104FA
:1003F0008091680082608093680080916C008263C5
:1004000080936C0080916800846080936800809184
:100410006D008C6080936D0087E091E00E94550430
:1004200081E060E00E94710485E191E00E94550442
:1004300080E29EE420E931E0F9013197F1F701977C
:10044000D9F781E00E94610478940E94EB008091CA
:10045000810088608093810084E294EF909389000A
:100460008093880080916F00826080936F000E946B
:1004700038050E946F0584E690E00E94010B80938E
:10048000440180914401843620F480914401882302
:1004900019F48FE08093440189B190E09C012470AD
:1004A000307035952795359527958870907053E075
:1004B000959587955A95E1F7882339F4222319F405
:1004C00010925F0109C081E005C0222311F482E08F
:1004D00001C083E080935F0180915F0180936001A0
:1004E0004FE1442E512C4C0E5D1E34E1632E712CD5
:1004F00023E3822E912C8C0E9D1E7E010894E11C1C
:10050000F11C9FE0C92ED12C80E1A82EB12CAC0E9D
:10051000BD1E05E3202E01E0302E81E06EE00E943A
:100520007104809144012DB73EB7285030400FB67A
:10053000F8943EBF0FBE2DBFEDB7FEB73196ADB7F5
:10054000BEB712965C924E9211977382628224E239
:1005500031E035832483868317820E9444068DB759
:100560009EB708960FB6F8949EBF0FBE8DBFC2010E
:100570000E9455040E94590080914601882309F485
:100580003BC181E00E94610480E060E00E94710450
:1005900060914701709148018091490190914A0111
:1005A00016E0660F771F881F991F1A95D1F728EE5E
:1005B00033E040E050E00E940E0620934701309364
:1005C00048014093490150934A01ADB7BEB71A970D
:1005D0000FB6F894BEBF0FBEADBFEDB7FEB73196F4
:1005E00012969C928E9211977382628288E291E0B9
:1005F0009583848326833783408751870E944406EE
:10060000ADB7BEB71A960FB6F894BEBF0FBEADBF5A
:10061000C4010E9455042091470130914801409146
:10062000490150914A0160E972EE80E090E00E9439
:100630000E06C901DA018093510190935201A093F3
:100640005301B09354011092550181E060E00E9483
:100650007104609151017091520180915301909108
:100660005401EDB7FEB73A970FB6F894FEBF0FBE30
:10067000EDBF0DB71EB70F5F1F4FF282E182D801A9
:100680001396DC92CE921297EEE2F1E01596FC936F
:10069000EE9314972AE030E040E050E00E940E060E
:1006A000D80116962D933D934D935C9319970E9414
:1006B0004406EDB7FEB73A960FB6F894FEBF0FBEEC
:1006C000EDBFC7010E945504609151017091520124
:1006D00080915301909154012DB73EB72A5030407C
:1006E0000FB6F8943EBF0FBE2DBF0DB71EB70F5FFC
:1006F0001F4FADB7BEB71296FC92EE921197F8015C
:10070000D382C28221E331E0358324832AE030E0C2
:1007100040E050E00E940E06D80116966D937D933E
:100720008D939C9319970E944406EDB7FEB73A96B5
:100730000FB6F894FEBF0FBEEDBFC7010E9455046F
:100740006091510170915201809153019091540137
:100750002AE030E040E050E00E940E06CA01B901F4
:1007600028EE3FEF4FEF5FEF0E94D0056455724FC8
:100770008F4F9F4F24E630E040E050E00E940E068D
:100780002093B30040915101509152016091530167
:10079000709154012DB73EB72A5030400FB6F894EF
:1007A0003EBF0FBE2DBFEDB7FEB73196ADB7BEB79A
:1007B0001296BC92AE921197D382C2823582248265
:1007C00046835783608771870E9444068501EDB791
:1007D000FEB73A960FB6F894FEBF0FBEEDBF02C04B
:1007E0000E948105D8018D918D01992787FD9095F3
:1007F0000097B1F71092460180914B0190914C0106
:10080000892B91F081E00E94610480E060E00E9409
:10081000710481E00E9461048AE391E00E94550422
:1008200010924C0110924B01809151019091520114
:10083000A0915301B0915401209144016AE070E00D
:100840000E94FB0530E02617370754F480915501CC
:10085000882331F485B5836085BD81E0809355019F
:1008600080914F01882309F458CE10924F010E94C5
:100870003A0153CE9BB19F709BB99BB1807F892B6E
:100880008BB9299A299A299808951F93182F289A85
:100890000E943A04812F8295807F0E943A0480E46E
:1008A0009FE10197F1F71F910895CF93DF93EC013A
:1008B00002C00E94450489918823D9F7DF91CF9126
:1008C00008951F93182F28980E943A04812F82952B
:1008D000807F0E943A0480E49FE10197F1F71F9125
:1008E0000895882319F4862F805802C0862F8054DB
:1008F0000E946104089584B1836084B98AB1806FD5
:100900008AB980E69AEE0197F1F780E30E943A04F3
:1009100080E29EE40197F1F780E30E943A0480EEC2
:1009200091E00197F1F780E30E943A0480E20E948F
:100930003A0480E49FE10197F1F788E20E946104A4
:100940008FE00E94610482E00E94610408951F927A
:100950000F920FB60F9211242F933F934F935F93F3
:100960006F937F938F939F93AF93BF93EF93FF9377
:1009700089B190E0AC0144705070559547955595FC
:1009800047959C012870307083E0359527958A95AE
:10099000E1F780915F01882351F4442321F0222361
:1009A000C9F581E027C02223A9F182E02CC0809103
:1009B0005F01813059F4442321F0222359F183E06F
:1009C00019C0222339F5109260011FC080915F0188
:1009D000823059F4442329F42223E1F41092600177
:1009E0000BC02223B9F083E00EC0442349F4222334
:1009F00089F082E080936001809144018F5F08C09C
:100A0000222341F481E08093600180914401815070
:100A10008093440180914401843610F083E605C040
:100A200080914401882319F481E0809344019091DE
:100A3000600180915F01981751F08091600180936F
:100A40005F016091440184E690E00E94090BFF91F0
:100A5000EF91BF91AF919F918F917F916F915F9136
:100A60004F913F912F910F900FBE0F901F901895AF
:100A700085B5886085BD8AEF87BDEEE6F0E08081B0
:100A80008260808308951F920F920FB60F921124F7
:100A90002F938F939F9388B192E0892788B9809193
:100AA00058019091590101969093590180935801F2
:100AB00080915801909159018D55914040F01092CC
:100AC00059011092580185B5887F85BD41989F9145
:100AD0008F912F910F900FBE0F901F90189587E662
:100AE00090E09093C5008093C400E1ECF0E0808139
:100AF0008861808386E08093C200808180688083E3
:100B00000895982F8091C00085FFFCCF9093C60078
:100B100008951F920F920FB60F9211248F939F93F7
:100B2000EF93FF939091C60080914E01882331F19D
:100B3000892F80538A3048F09D3739F010924E014A
:100B400010924F011092500119C0809150018530D0
:100B500078F4E0915001F0E0E65AFE4F90838091E6
:100B600050018F5F8093500181E080934F010FC04F
:100B700010924E011092500110924F019B3739F4A0
:100B800081E080934E011092500110924F01FF912D
:100B9000EF919F918F910F900FBE0F901F9018951E
:100BA000629FD001739FF001829FE00DF11D649F51
:100BB000E00DF11D929FF00D839FF00D749FF00DDD
:100BC000659FF00D9927729FB00DE11DF91F639F7E
:100BD000B00DE11DF91FBD01CF0111240895991B2E
:100BE00079E004C0991F961708F0961B881F7A9524
:100BF000C9F78095089597FB092E07260AD077FD3F
:100C000004D02ED006D000201AF4709561957F4F45
:100C10000895F6F7909581959F4F0895A1E21A2EB9
:100C2000AA1BBB1BFD010DC0AA1FBB1FEE1FFF1F90
:100C3000A217B307E407F50720F0A21BB30BE40BE0
:100C4000F50B661F771F881F991F1A9469F7609527
:100C50007095809590959B01AC01BD01CF010895E1
:100C6000AA1BBB1B51E107C0AA1FBB1FA617B707D2
:100C700010F0A61BB70B881F991F5A95A9F78095EE
:100C80009095BC01CD010895AEE0B0E0EAE4F6E055
:100C90000C943B0C0D891E898F89988D97FF02C09B
:100CA00080E090E801979E838D831A83098386E014
:100CB0008C839E01255E3F4FCE010196698D7A8D12
:100CC000A9010E948F064D815E8157FD0AC02F81C8
:100CD0003885421753070CF49A01020F131FF801CD
:100CE00010822E96E4E00C94570CAEE0B0E0EBE7F7
:100CF000F6E00C943D0C85E08C838B899C899A836B
:100D000089839E01295E3F4FCE0101966D897E89C0
:100D1000A9010E94F0092E96E2E00C94590CABE078
:100D2000B0E0E5E9F6E00C942D0C3C012B015A01F2
:100D3000FC0117821682838181FD03C06FEF7FEF74
:100D4000C6C19AE0892E1E010894211C311CF301B2
:100D50002381F20123FD859123FF81912F018823B7
:100D600009F4B2C1853239F423FD859123FF8191C5
:100D70002F01853229F490E0B3010E94860BE7CF62
:100D8000982FFF24EE249924FFE1FF15D0F09B3229
:100D900069F09C3228F4903259F0933291F40EC0ED
:100DA0009D3249F0903369F441E024C052E0F52AC5
:100DB00084E0F82A28C098E0F92A25C0E0E1FE2A5C
:100DC00022C0F7FC29C0892F80538A3070F4F6FEC8
:100DD00005C0989C902C1124980E15C0E89CE02C1E
:100DE0001124E80EF0E2FF2A0EC09E3229F4F6FC30
:100DF0006BC140E4F42A07C09C3619F450E8F52A88
:100E000002C0983649F4F20123FD959123FF919198
:100E10002F01992309F0B8CF892F8554833018F01A
:100E20008052833038F444E050E0A40EB51E5FE3F6
:100E300059830FC0933631F0933779F0933509F029
:100E400056C020C0F5018081898342E050E0A40EA5
:100E5000B51E610101E010E012C0F501C080D18033
:100E6000F6FC03C06FEF7FEF02C0692D70E042E037
:100E700050E0A40EB51EC6010E94390B8C015FE73D
:100E8000F52214C0F501C080D180F6FC03C06FEFDD
:100E90007FEF02C0692D70E042E050E0A40EB51E65
:100EA000C6010E942E0B8C0150E8F52AF3FE07C004
:100EB0001AC080E290E0B3010E94860BEA948E2D66
:100EC00090E008171907A8F30EC0F601F7FC85910A
:100ED000F7FE81916F0190E0B3010E94860BE11053
:100EE000EA94015010400115110579F7EAC09436D3
:100EF00011F0993669F5F7FE08C0F50120813181BE
:100F00004281538184E090E00AC0F50180819181A3
:100F10009C01442737FD4095542F82E090E0A80EB5
:100F2000B91E9FE6F92257FF09C0509540953095AC
:100F300021953F4F4F4F5F4FE0E8FE2ACA01B901AC
:100F4000A1012AE030E00E94CC0BD82ED21840C07C
:100F5000953729F41F2D1F7E2AE030E01DC01F2D7C
:100F6000197F9F3661F0903720F4983509F0ACC0B6
:100F70000FC0903739F0983709F0A6C004C028E0B8
:100F800030E00AC0106114FD146020E130E004C0BC
:100F900014FD166020E132E017FF08C0F501608102
:100FA00071818281938144E050E008C0F501808125
:100FB0009181BC0180E090E042E050E0A40EB51EBB
:100FC000A1010E94CC0BD82ED2188FE7F82EF12267
:100FD000F6FE0BC05EEFF522D91438F4F4FE07C01C
:100FE000F2FC05C08FEEF82202C01D2D01C0192DA4
:100FF000F4FE0DC0FE01ED0DF11D8081803319F46A
:1010000099EEF92208C01F5FF2FE05C003C08F2DC4
:10101000867809F01F5F0F2DF3FC14C0F0FE0FC09F
:101020001E1510F09D2C0BC09D2C9E0C911A1E2D90
:1010300006C080E290E0B3010E94860B1F5F1E1580
:10104000C0F304C01E1510F4E11A01C0EE2404FF21
:101050000FC080E390E0B3010E94860B02FF1DC029
:1010600001FD03C088E790E00EC088E590E00BC06A
:10107000802F867891F001FF02C08BE201C080E2F0
:10108000F7FC8DE290E0B3010E94860B06C080E37E
:1010900090E0B3010E94860B9A94D914C0F3DA94BD
:1010A000F101ED0DF11D808190E0B3010E94860BEE
:1010B000DD20A9F706C080E290E0B3010E94860B14
:1010C000EA94EE20C1F743CEF30166817781CB012C
:1010D0002B96E2E10C94490CFC0120FD08C023FD95
:1010E00005C022FF02C07383628351834083089549
:1010F000EF92FF920F931F9344FF02C033E011C0A1
:1011000046FF02C034E00DC0DB01FC01AA0FBB1F8B
:10111000EE1FFF1F1094D1F76A0F7B1F8E1F9F1FBA
:1011200031E0660F771F881F991F3150D1F77B017F
:101130008C01E20EF11C011D111DA8019701B701E0
:10114000CA011F910F91FF90EF9008950F931F9385
:10115000CF93DF938C01C8010E94440BEC0197FDF3
:1011600008C00E941B0B892BB1F7CE01B8010E9469
:10117000B20BCE01DF91CF911F910F910895A0E0A6
:10118000B0E0E5ECF8E00C94350CEC01C62E5A0109
:10119000122F0E94440BAC018B3219F08D3251F4A6
:1011A0001068CA9409F46DC0CE010E94440BAC01D2
:1011B00097FD67C06DEFD62ED1228D2D807301F57E
:1011C0004033F1F4CA9409F447C0CE010E94440BA5
:1011D000AC0197FD41C082E0D82A483711F048356C
:1011E00059F480E4D82ACA94B9F1CE010E94440B84
:1011F000AC0199232CF430C0D6FC02C080E1D82A7F
:10120000EE24FF248701242F2053283088F0D4FCBB
:1012100009C02A3068F0D6FE05C02F7D822F81518B
:10122000863028F0CA01BE010E94B20B12C02750BE
:10123000C801B7014D2D0E9478087B018C0182E026
:10124000D82ACA9461F0CE010E94440BAC0197FFEA
:10125000DACFD1FC04C015C0EE24FF248701D7FEED
:1012600008C010950095F094E094E11CF11C011D5C
:10127000111DC501B801A7012D2D0E946C0881E048
:1012800001C080E0CDB7DEB7EAE00C94510CA0E2DB
:10129000B0E0EDE4F9E00C94310C6C01A62E8A016B
:1012A0007901FE01319680E2DF011D928A95E9F70E
:1012B00070E030E060E040E050E04F01A1E0B0E0DD
:1012C000F6018381F70183FD259183FF21917F0141
:1012D000222309F47EC02E3519F44115510569F118
:1012E000872F90E08417950744F42D3551F12D3266
:1012F00021F4332329F431E021C0332309F4622F90
:10130000322F832F869586958695F401E80FF11D7F
:10131000832F87703D0102C0660C771C8A95E2F727
:10132000208126292083361711F430E007C03617B4
:1013300010F43F5FE6CF3150E4CF71E04F5F5F4F75
:10134000BFCF332319F08E8180628E83772359F0CB
:10135000FE0131969E012F5D3F4F808180958193E4
:10136000E217F307D1F7BB24B3944E010894811C14
:10137000911CC6010E94440BAC0197FD22C08695CA
:1013800086958695F401E80FF11D808190E09A0121
:101390002770307002C0959587952A95E2F780FDF9
:1013A00005C0CA01B6010E94B20B0BC001151105A0
:1013B00019F0D8014D938D01AA94BB24AA20C9F637
:1013C00002C0BB2031F40115110529F0F80110828B
:1013D00002C0EE24FF24C701A096EEE00C944D0C51
:1013E000A0E0B0E0E6EFF9E00C94310C5C016B0199
:1013F0003A01FC01178216828824EAC0812F90E00E
:101400000E941B0B892B21F0C5010E94A608E0C099
:10141000153249F4F601F3FC6591F3FE61916F0119
:10142000653269F415E2C5010E94440B97FDDCC0EA
:10143000181709F4CDC0B5010E94B20BDAC06A32A8
:1014400019F0162F00E006C0F3FC1591F3FE119180
:101450006F0101E099240FC00260692D70E080E007
:1014600090E040E20E947808962EF601F3FC159178
:10147000F3FE11916F01212F20532A3068F301FDF3
:1014800003C099249A9403C0992009F4B2C0183675
:1014900021F01C3699F4F6010BC0F601F3FC6591BE
:1014A000F3FE6191683619F06F01162F07C00860CE
:1014B0000460F3FC1591F3FE11916F01112309F4FF
:1014C00098C088E690E0612F70E00E94230B892B82
:1014D00009F48FC0802F00FF03C0EE24FF2407C053
:1014E000F301E080F18022E030E0620E731E1E36D0
:1014F00051F4F5014681578160E070E0C701202F6B
:101500000E946C0865C0133691F481FD02C09924D5
:101510009394C5010E94440B97FD66C0E114F10449
:1015200019F0F70181937F019A9499F74FC01B3509
:1015300059F4C501692DA70196010E9447096C0164
:10154000009709F043C03DC0C5010E94A60897FD61
:101550004BC01F3659F1103728F4143629F11936CB
:1015600039F527C0133719F0153711F51DC0C5011E
:101570000E94440BEC0197FD11C00E941B0B892BAC
:1015800029F0CE01B5010E94B20B08C0E114F104AC
:1015900019F0F701C1937F019A9449F7E114F1041E
:1015A000A9F0F701108212C0006203C0006101C0FF
:1015B0000064C501692DA701202F0E94BF08882360
:1015C00029F4F5018381807379F413C000FF8394BB
:1015D000F501F380F601F3FC1591F3FE11916F0113
:1015E000112309F00BCF05C0882019F42FEF3FEF2E
:1015F00002C0282D30E0C901CDB7DEB7EEE00C9473
:101600004D0CF999FECF92BD81BDF89A992780B50E
:101610000895262FF999FECF92BD81BDF89A0197C2
:1016200000B4021639F01FBA20BD0FB6F894FA9A2A
:10163000F99A0FBE089591110DC1803219F08950A9
:101640008550D0F70895FC010590061621F0002082
:10165000D9F7C00108953197CF010895FC01059095
:10166000615070400110D8F7809590958E0F9F1FA4
:101670000895FC016150704001900110D8F78095E9
:1016800090958E0F9F1F0895CF93DF93EC014B81B0
:1016900040FF1AC046FF0AC04F7B4B838E819F815B
:1016A00001969F838E838A81282F2BC042FF13C00F
:1016B000E881F9818081282F332727FD3095211576
:1016C000310529F440624B832FEF3FEF1BC0319669
:1016D000F983E88311C0EA85FB85CE0109959C0159
:1016E00097FF0AC09B812F5F3F4F11F080E201C03E
:1016F00080E1892B8B83E8CF8E819F8101969F8328
:101700008E8330E0C901DF91CF9108950F931F932D
:10171000CF93DF938C01EB018B8181FF1BC082FF94
:101720000DC02E813F818C819D812817390764F47B
:10173000E881F9810193F983E88306C0E885F9859A
:10174000802F0995892B31F48E819F8101969F838B
:101750008E8302C00FEF1FEFC801DF91CF911F9161
:101760000F9108959C01FB01838180FF11C086FDCC
:101770000FC09FEF2F3F390759F0228380648F7D80
:1017800083838681978101979783868330E002C0A7
:101790002FEF3FEFC9010895FA01AA27283051F130
:1017A000203181F1E8946F936E7F6E5F7F4F8F4F92
:1017B0009F4FAF4FB1E03ED0B4E03CD0670F781FF1
:1017C000891F9A1FA11D680F791F8A1F911DA11DD6
:1017D0006A0F711D811D911DA11D20D009F468940F
:1017E0003F912AE0269F11243019305D3193DEF6B7
:1017F000CF010895462F4770405D4193B3E00FD06D
:10180000C9F7F6CF462F4F70405D4A3318F0495D57
:1018100031FD4052419302D0A9F7EACFB4E0A6953A
:101820009795879577956795BA95C9F7009761055C
:10183000710508959B01AC010A2E069457954795B2
:1018400037952795BA95C9F7620F731F841F951FA7
:10185000A01D08959927882708952F923F924F92AF
:101860005F926F927F928F929F92AF92BF92CF9230
:10187000DF92EF92FF920F931F93CF93DF93CDB739
:10188000DEB7CA1BDB0B0FB6F894DEBF0FBECDBFB1
:1018900009942A88398848885F846E847D848C8482
:1018A0009B84AA84B984C884DF80EE80FD800C818B
:1018B0001B81AA81B981CE0FD11D0FB6F894DEBF6E
:0C18C0000FBECDBFED010895F894FFCFDE
:1018CC002564002E25640045453130392050726F57
:1018DC006A6563740047726973686D61205368753B
:1018EC006B6C6100253275002575206D73002575B4
:1018FC00002E2575007B25757D004F766572746909
:06190C006D6521000100E1
:00000001FF
